:020000040800F2
:1000000008040020D10C0008A10B0008A30B000875
:10001000A50B0008A70B0008A90B000800000000B2
:10002000000000000000000000000000F90C0008C3
:10003000FD0C000800000000AB0B0008AD0B000831
:10004000010D0008050D0008090D00080D0D000840
:10005000110D0008150D0008190D00081D0D0008F0
:10006000210D0008250D0008290D00082D0D0008A0
:10007000310D0008350D0008390D00083D0D000850
:10008000410D0008450D0008490D00080000000062
:100090000000000000000000000000004D0D0008FE
:1000A000510D0008AF0B0008550D0008590D000850
:1000B0005D0D0008610D0008650D0008690D000860
:1000C0006D0D0008710D0008750D0008F90B000892
:1000D000790D00087D0D0008810D0008000000006A
:1000E000850D0008890D00088D0D00080000000036
:1000F000000000000000000000000000910D00085A
:1001000000000000950D0008990D0008FB0B000889
:1001100000000000000000000000000000000000DF
:100120009D0D0008A10D0008A50D0008A90D0008EF
:10013000AD0D0008000000000000000000000000FD
:10014000000000000000000000000000B10D0008E9
:10015000B50D0008B90D0008BD0D0008C10D00085F
:10016000C50D0008C90D00080000000000000000D7
:10017000000000000000000000000000000000007F
:1001800000000000CD0D000800000000000000008D
:10019000D10D000810B410F00703844C22684FF60C
:1001A000FF010A4052EA032281490A43226010BC3F
:1001B00070477E480068C0F30220704710B4020008
:1001C00052B2002A05D40A017A4B040064B21A55CF
:1001D00008E00A01784B040064B214F00F042344D1
:1001E00003F8042C10BC704770B4030013F007042C
:1001F000D4F10700052801D3042001E0D4F1070061
:10020000251D072D01D2002500E0E51E012616FA66
:1002100000F0401E0140A94016FA05F56D1E2A4067
:100220001143080070BC70476448016851F0010137
:100230000160704761480068400810F00100704795
:100240005E490A6832F0F80252EAC0020A6070475A
:100250005B490A689208920002430A607047584856
:10026000006810F00C00704755490A6832F0F0023F
:1002700002430A60704752490A6832F4E05202436E
:100280000A6070474E490A6832F4604202430A60CD
:1002900070474C490A6832F0807202430A60704726
:1002A00081B049490A6802430A6009680140009127
:1002B000009901B0704781B044490A6802430A605E
:1002C000096801400091009901B0704740490A68EF
:1002D000D208D20002430A6070473D48006810F01F
:1002E000070070473B490A6832F4404202430A6003
:1002F000704780B54FF48040FFF7DDFF5FF080501E
:10030000FFF7CEFF0320FFF745FFFFF752FF002264
:100310000F21FFF769FF01005FF0FF30FFF74EFF8D
:1003200000F013F800F06CF800F012F900F061F939
:1003300000F01FFA2848016851F0010101602748C8
:10034000016851F001010160FEE710B50020FFF7E0
:10035000BDFFFFF7C2FF0028FBD14FF40040FFF7BD
:10036000C1FF1020FFF76CFFFFF75EFFFFF762FF92
:100370000128FBD10020FFF777FF0020FFF77BFF6C
:100380000020FFF77FFF0020FFF762FFFFF767FF06
:100390000028FBD1124C200000F033FA200000F0BE
:1003A00038FA0020FFF775FF10BD00000CED00E0EB
:1003B0000000FA0500E400E018ED00E0003802401B
:1003C000083802408C38024040380240443802402D
:1003D000003C024000700040004401400C440140D9
:1003E0000024F40081B01F490A6802430A600968CA
:1003F00001400091009901B070470A048261704782
:1004000010B586B018220021684600F00DFA0420CD
:10041000FFF7E8FF0120FFF7E5FF0220FFF7E2FF0B
:10042000114C4FF400512000FFF7E7FF4FF400504C
:1004300000900120019000200290002003900020F5
:1004400004906946200000F06FFA4FF4804000905D
:1004500000200190012004906946200000F064FA19
:1004600006B010BD303802400008024088480068DD
:10047000C0F3022070470000010049B2002909D4EE
:10048000012210F01F018A40824903005BB25B0920
:1004900041F82320704710B4020052B2002A05D45C
:1004A0000A017D4B040064B21A5508E00A017B4B37
:1004B000040064B214F00F04234403F8042C10BCAD
:1004C000704770B4030013F00704D4F10700052847
:1004D00001D3042001E0D4F10700251D072D01D22E
:1004E000002500E0E51E012616FA00F0401E01403E
:1004F000A94016FA05F56D1E2A401143080070BC8C
:10050000704781B066490A6802430A600968014081
:100510000091009901B0704781B062490A680243B6
:100520000A60096801400091009901B0704781B0EC
:100530005D490A6802430A60096801400091009918
:1005400001B07047426832F010020A4342607047BF
:1005500010B590B02822002106A800F065F91822F5
:100560000021684600F060F94FF48050FFF7DFFF8C
:100570000120FFF7C6FFE020009002200190032039
:100580000290002003900020049005200590694609
:10059000464800F0C9F9FFF769FF00220021FFF784
:1005A00090FF01002320FFF776FF2320FFF764FF71
:1005B000002006904FF482700790002008900020E1
:1005C000099000200A904FF400700B9000200C90CE
:1005D00000200D9000200E900A200F90344C06A9A8
:1005E000200000F006FA00212000FFF7ABFF10B05A
:1005F00010BD10B590B02822002106A800F014F913
:1006000018220021684600F00FF94FF40040FFF770
:1006100083FF0220FFF775FF382000900220019031
:1006200003200290002003900020049006200590F3
:100630006946204800F078F9FFF718FF00220021F2
:10064000FFF73FFF01003320FFF725FF3320FFF7BF
:1006500013FF002006900020079000200890002043
:10066000099000200A904FF400700B9000200D902C
:1006700000200E900A200F900F4C06A9200000F0D9
:10068000B8F900212000FFF75DFF10B010BD000099
:100690000CED00E000E100E000E400E018ED00E017
:1006A00030380240403802404438024000000240E6
:1006B0000030014000040240003C00404248006815
:1006C000C0F3022070470000010049B2002909D49C
:1006D000012210F01F018A403C4903005BB25B0914
:1006E00041F82320704710B4020052B2002A05D40A
:1006F0000A01374B040064B21A5508E00A01354B71
:10070000040064B214F00F04234403F8042C10BC5A
:10071000704770B4030013F00704D4F107000528F4
:1007200001D3042001E0D4F10700251D072D01D2DB
:10073000002500E0E51E012616FA00F0401E0140EB
:10074000A94016FA05F56D1E2A401143080070BC39
:10075000704781B020490A6802430A600968014075
:100760000091009901B07047016831F0800101608B
:10077000704718B585B014220021684600F054F87F
:100780005FF40030FFF7E5FFFFF798FF002200213C
:10079000FFF7BFFF01001920FFF7A5FF1920FFF7A2
:1007A00093FF1020ADF80000002001900B4802904C
:1007B000002003900A4C6946200000F05EF92000FA
:1007C000FFF7D2FF06B010BD0CED00E000E100E045
:1007D00000E400E018ED00E0443802401027F0FF8C
:1007E00000440140B0FBF1F2521EDFF82C301A60D9
:1007F0000022DFF828301A600522DFF824301A6062
:10080000704710B504004FF47A712000FFF7EAFF3B
:1008100010BD04490860704714E000E018E000E0F3
:1008200010E000E00000002010B5044610460A4623
:100830000146204600F080F9204610BD30B404681F
:1008400091FAA1F3B3FA83F303255B009D40AC4317
:1008500091FAA1F3B3FA83F35B0012FA03F31C439A
:10086000046030BC704710B444688C4302FB01F351
:100870001C43446010BC704730B4846891FAA1F303
:10088000B3FA83F303255B009D40AC4391FAA1F3D7
:10089000B3FA83F35B0012FA03F31C43846030BCA9
:1008A000704730B4C46891FAA1F3B3FA83F3032517
:1008B0005B009D40AC4391FAA1F3B3FA83F35B0074
:1008C00012FA03F31C43C46030BC704730B4046AAE
:1008D00091FAA1F3B3FA83F30F259B009D40AC433B
:1008E00091FAA1F3B3FA83F39B0012FA03F31C43CA
:1008F000046230BC704730B4446A0B001B0A93FAA0
:10090000A3F3B3FA83F30F259B009D40AC430B0088
:100910001B0A93FAA3F3B3FA83F39B0012FA03F3CF
:100920001C43446230BC7047F8B505000E0000203F
:100930000024316891FAA1F1B1FA81F73068F840EA
:10094000002836D030680121B94008400400002C4E
:100950002DD07068012802D07068022809D1B268D1
:1009600021002800FFF788FFF26821002800FFF728
:100970007AFF326921002800FFF793FF7068022890
:1009800010D194FAA4F0B0FA80F0082805D2726968
:1009900021002800FFF79AFF04E072692100280077
:1009A000FFF7A9FF726821002800FFF747FF7F1CAF
:1009B000C4E70020F2BD0EE002684368024408303C
:1009C0005FEAC37C44BF4B445B1E52F804CB43F840
:1009D00004CB091FF9D150F8041B0029ECD1704752
:1009E0000068800910F0010070470A0092B20261AD
:1009F000704770B504000D0001262000FFF7F0FFDE
:100A0000002826D1216816480140286801436868FB
:100A10000143A8680143E868014328690143686904
:100A20000143A8690143E8690143286A0143216041
:100A3000606830F00400696950EA11406060286A1B
:100A4000B0F5005F03D1696A2000FFF7CEFF0020F8
:100A50000600E06930F40060E0613000C0B270BDB3
:100A60004000FFFF81627047C162704701637047B9
:100A7000416951F0010141617047F8B504000D0072
:100A80002668DFF89870BC420ED0B4F1804F0BD0CE
:100A9000DFF88C00844207D0DFF88800844203D05E
:100AA000DFF88400844203D136F07006686806439C
:100AB000BC421AD0B4F1804F17D0DFF864008442F2
:100AC00013D0DFF8600084420FD0DFF85C0084426E
:100AD0000BD0DFF85800844207D0DFF8540084427E
:100AE00003D0DFF85000844203D136F44076E86842
:100AF00006432660A9682000FFF7B6FF298820007A
:100B0000FFF7B0FFBC4203D129692000FFF7AEFF19
:100B10002000FFF7ADFF0020F2BD00000000014003
:100B20000004004000080040000C0040004001406C
:100B3000004401400048014062F30F2262F31F426B
:100B4000401810F0030308D0C91A1FD3DB0748BFB1
:100B500000F8012D28BF20F8022D130030B41446F0
:100B60001546103928BF20E93C00FAD8490728BFAC
:100B700020E90C0048BF40F8042D890028BF20F868
:100B8000022D48BF00F8012D30BC7047C91818BFAE
:100B900000F8012DCB0728BF00F8012D7047000099
:100BA000FEE7FEE7FEE7FEE7FEE77047704780B529
:100BB0000E48016849084900016000F01FF800284C
:100BC0000ED10B480178491C0170017802290CDB19
:100BD00008490A6832F400520A600021017004E0FA
:100BE0000448016851F40051016001BD1044014006
:100BF0000400002014080240704770470248006853
:100C0000800B10F0010070471008024010B5074932
:100C100079441831064C7C44163404E00A68081DF7
:100C2000114488470146A142F8D110BD2C000000B4
:100C30003C0000004EF68851CEF20001086840F4F6
:100C400070000860BFF34F8FBFF36F8F4FF00170DC
:100C5000E1EE100A704700005FFDFFFF0800000092
:100C600090000000000000200000000000F00DF8DF
:100C7000002801D0FFF7CAFFAFF300800020AFF3D8
:100C80000080FFF736FB00F002F80120704700F00B
:100C900001B800000746384600F002F8FBE7000004
:100CA00080B5AFF30080024A11001820ABBEFBE70D
:100CB000260002000548014603B4684680F309880F
:100CC000AFF30080FFF7B6FFFFF7D0FFA5EDF5FE0D
:100CD0000148804701480047E10C0008B50C0008B6
:100CE0000248016851F470010160704788ED00E02E
:100CF0000024F40000000000FFF7FEBFFFF7FEBF76
:100D0000FFF7FEBFFFF7FEBFFFF7FEBFFFF7FEBF17
:100D1000FFF7FEBFFFF7FEBFFFF7FEBFFFF7FEBF07
:100D2000FFF7FEBFFFF7FEBFFFF7FEBFFFF7FEBFF7
:100D3000FFF7FEBFFFF7FEBFFFF7FEBFFFF7FEBFE7
:100D4000FFF7FEBFFFF7FEBFFFF7FEBFFFF7FEBFD7
:100D5000FFF7FEBFFFF7FEBFFFF7FEBFFFF7FEBFC7
:100D6000FFF7FEBFFFF7FEBFFFF7FEBFFFF7FEBFB7
:100D7000FFF7FEBFFFF7FEBFFFF7FEBFFFF7FEBFA7
:100D8000FFF7FEBFFFF7FEBFFFF7FEBFFFF7FEBF97
:100D9000FFF7FEBFFFF7FEBFFFF7FEBFFFF7FEBF87
:100DA000FFF7FEBFFFF7FEBFFFF7FEBFFFF7FEBF77
:100DB000FFF7FEBFFFF7FEBFFFF7FEBFFFF7FEBF67
:100DC000FFF7FEBFFFF7FEBFFFF7FEBFFFF7FEBF57
:040DD000FFF7FEBF6C
:0400000508000CB52E
:00000001FF
