:020000040800F2
:1000000010040020D10D00082D0C00082F0C000852
:10001000310C0008330C0008350C0008000000000B
:10002000000000000000000000000000010E0008B9
:10003000050E000800000000370C0008390C00080D
:10004000090E00080D0E0008110E0008150E00081C
:10005000190E00081D0E0008210E0008250E0008CC
:10006000290E00082D0E0008310E0008350E00087C
:10007000390E00083D0E0008410E0008450E00082C
:10008000490E00084D0E0008510E00080000000047
:10009000000000000000000000000000550E0008F5
:1000A000590E00083B0C00085D0E0008610E0008A8
:1000B000650E0008690E00086D0E0008710E00083C
:1000C000750E0008790E00087D0E0008810E0008EC
:1000D000850E0008890E00088D0E00080000000043
:1000E000910E0008950E0008990E0008000000000F
:1000F0000000000000000000000000009D0E00084D
:1001000000000000A10E0008A50E0008A30C0008C6
:1001100000000000000000000000000000000000DF
:10012000A90E0008AD0E0008B10E0008B50E0008BB
:10013000B90E0008000000000000000000000000F0
:10014000000000000000000000000000BD0E0008DC
:10015000C10E0008C50E0008C90E0008CD0E00082B
:10016000D10E0008D50E00080000000000000000BD
:10017000000000000000000000000000000000007F
:1001800000000000D90E0008000000000000000080
:10019000DD0E000810B410F00703894C22684FF6FA
:1001A000FF010A4052EA032286490A43226010BC3A
:1001B000704783480068C0F30220704710B4020003
:1001C00052B2002A05D40A017F4B040064B21A55CA
:1001D00008E00A017D4B040064B214F00F042344CC
:1001E00003F8042C10BC704770B4030013F007042C
:1001F000D4F10700052801D3042001E0D4F1070061
:10020000251D072D01D2002500E0E51E012616FA66
:1002100000F0401E0140A94016FA05F56D1E2A4067
:100220001143080070BC70476948016851F0010132
:100230000160704766480068400810F00100704790
:1002400063490A6832F0F80252EAC0020A60704755
:1002500060490A689208920002430A6070475D484C
:10026000006810F00C0070475A490A6832F0F0023A
:1002700002430A60704757490A6832F4E052024369
:100280000A60704753490A6832F4604202430A60C8
:10029000704751490A6832F0807202430A60704721
:1002A00081B04E490A6802430A6009680140009122
:1002B000009901B0704781B049490A6802430A6059
:1002C000096801400091009901B0704745490A68EA
:1002D000D208D20002430A6070474248006810F01A
:1002E0000700704740490A6832F4404202430A60FE
:1002F000704780B54FF48040FFF7DDFF5FF080501E
:10030000FFF7CEFF0320FFF745FFFFF752FF002264
:100310000F21FFF769FF01005FF0FF30FFF74EFF8D
:1003200000F01EF800F07CF800F022F900F064F90B
:1003300000F021FA2D48016851F0010101602C48BC
:10034000016851F0010101602A48016851F0400143
:100350000160294800F086FA284800F083FAFEE799
:1003600010B50020FFF7B2FFFFF7B7FF0028FBD161
:100370004FF40040FFF7B6FF1020FFF761FFFFF7D3
:1003800053FFFFF757FF0128FBD10020FFF76CFF59
:100390000020FFF770FF0020FFF774FF0020FFF739
:1003A00057FFFFF75CFF0028FBD1154C200000F041
:1003B00082FA200000F087FA0020FFF76AFF10BDE4
:1003C0000CED00E00000FA0500E400E018ED00E0AC
:1003D00000380240083802408C3802404038024061
:1003E00044380240003C024000700040004401409C
:1003F0000C440140043C004000300140003C0040FF
:100400000024F40081B01F490A6802430A600968A9
:1004100001400091009901B070470A048261704761
:1004200010B586B018220021684600F057FA042063
:10043000FFF7E8FF0120FFF7E5FF0220FFF7E2FFEB
:10044000114C4FF420412000FFF7E7FF4FF420400C
:1004500000900120019000200290002003900020D5
:1004600004906946200000F0B9FA4FF480400090F3
:1004700000200190012004906946200000F0AEFAAF
:1004800006B010BD303802400008024081480068C4
:10049000C0F3022070470000010049B2002909D4CE
:1004A000012210F01F018A407B4903005BB25B0907
:1004B00041F82320704710B4020052B2002A05D43C
:1004C0000A01764B040064B21A5508E00A01744B25
:1004D000040064B214F00F04234403F8042C10BC8D
:1004E000704770B4030013F00704D4F10700052827
:1004F00001D3042001E0D4F10700251D072D01D20E
:10050000002500E0E51E012616FA00F0401E01401D
:10051000A94016FA05F56D1E2A401143080070BC6B
:10052000704781B05F490A6802430A600968014068
:100530000091009901B0704781B05B490A6802439D
:100540000A60096801400091009901B0704781B0CC
:1005500056490A6802430A600968014000910099FF
:1005600001B07047426832F010020A43426070479F
:1005700010B590B02822002106A800F0AFF918228B
:100580000021684600F0AAF94FF48050FFF7DFFF22
:100590000120FFF7C6FFE020009002200190032019
:1005A00002900020039000200490052005906946E9
:1005B0003F4800F013FA002006904FF48270079035
:1005C000002008900020099000200A904FF400704D
:1005D0000B9000200C9000200D9000200E900A201F
:1005E0000F90344C06A9200000F049FA00212000A9
:1005F000FFF7B8FF10B010BD10B590B02822002151
:1006000006A800F06BF918220021684600F066F990
:100610004FF40040FFF790FF0220FFF782FF3820E1
:1006200000900220019003200290002003900020FF
:1006300004900620059069461F4800F0CFF9FFF7A7
:1006400025FF00220021FFF74CFF01003320FFF7B8
:1006500032FF3320FFF720FF002006900020079094
:10066000002008900020099000200A904FF40070AC
:100670000B9000200D9000200E900A200F900F4C40
:1006800006A9200000F0FBF900212000FFF76AFF17
:1006900010B010BD0CED00E000E100E000E400E06F
:1006A00018ED00E030380240403802404438024043
:1006B000000002400030014000040240003C0040C5
:1006C00042480068C0F3022070470000010049B2B0
:1006D000002909D4012210F01F018A403C4903007F
:1006E0005BB25B0941F82320704710B4020052B29C
:1006F000002A05D40A01374B040064B21A5508E0F9
:100700000A01354B040064B214F00F04234403F8CB
:10071000042C10BC704770B4030013F00704D4F12C
:100720000700052801D3042001E0D4F10700251DAE
:10073000072D01D2002500E0E51E012616FA00F083
:10074000401E0140A94016FA05F56D1E2A401143CE
:10075000080070BC704781B020490A6802430A60F3
:10076000096801400091009901B07047016831F0BB
:1007700080010160704718B585B0142200216846D9
:1007800000F0ACF85FF40030FFF7E5FFFFF798FFEB
:1007900000220221FFF7BFFF01001920FFF7A5FF8C
:1007A0001920FFF793FF1020ADF800000020019002
:1007B0000B480290002003900A4C6946200000F08C
:1007C000A2F92000FFF7D2FF06B010BD0CED00E04B
:1007D00000E100E000E400E018ED00E044380240F1
:1007E0001027F0FF0044014002009068800702D506
:1007F0009068000605D50800C0B2002801D0491E47
:10080000F3E70800C0B2002801D0002000E001207A
:1008100070472DE9F84304000D0016001F00A8469C
:10082000B1463800C0B2002819D0A068000616D41E
:1008300050212000FFF7D8FF002801D001200FE051
:1008400098F80000E06018F10108A068C007FCD526
:10085000E06889F8000019F101097F1EE1E7002036
:10086000BDE8F283016851F04001016070470EE07D
:1008700002684368024408305FEAC37C44BF4B44CB
:100880005B1E52F804CB43F804CB091FF9D150F892
:10089000041B0029ECD17047B0FBF1F2521EDFF8C7
:1008A0002C301A600022DFF828301A600522DFF8A9
:1008B00024301A60704710B504004FF47A7120009C
:1008C000FFF7EAFF10BD04490860704714E000E03C
:1008D00018E000E010E000E00000002010B5044641
:1008E00010460A460146204600F06CF9204610BD2D
:1008F00030B4046891FAA1F3B3FA83F303255B00E3
:100900009D40AC4391FAA1F3B3FA83F35B0012FA72
:1009100003F31C43046030BC704710B444688C433C
:1009200002FB01F31C43446010BC704730B4846880
:1009300091FAA1F3B3FA83F303255B009D40AC4326
:1009400091FAA1F3B3FA83F35B0012FA03F31C43A9
:10095000846030BC704730B4C46891FAA1F3B3FA34
:1009600083F303255B009D40AC4391FAA1F3B3FAF6
:1009700083F35B0012FA03F31C43C46030BC70477E
:1009800030B4046A91FAA1F3B3FA83F30F259B0004
:100990009D40AC4391FAA1F3B3FA83F39B0012FAA2
:1009A00003F31C43046230BC704730B4446A0B004C
:1009B0001B0A93FAA3F3B3FA83F30F259B009D4020
:1009C000AC430B001B0A93FAA3F3B3FA83F39B0027
:1009D00012FA03F31C43446230BC7047F8B50500BB
:1009E0000E0000200024316891FAA1F1B1FA81F7DC
:1009F0003068F840002836D030680121B9400840FE
:100A00000400002C2DD07068012802D070680228E4
:100A100009D1B26821002800FFF788FFF2682100A1
:100A20002800FFF77AFF326921002800FFF793FFC3
:100A30007068022810D194FAA4F0B0FA80F0082867
:100A400005D2726921002800FFF79AFF04E072695D
:100A500021002800FFF7A9FF726821002800FFF796
:100A600047FF7F1CC4E70020F2BD0000006880093A
:100A700010F0010070470A0092B20261704770B531
:100A800004000D0001262000FFF7F0FF002826D10A
:100A90002168164801402868014368680143A86836
:100AA0000143E86801432869014368690143A86973
:100AB0000143E8690143286A01432160606830F01E
:100AC0000400696950EA11406060286AB0F5005F6F
:100AD00003D1696A2000FFF7CEFF00200600E0691D
:100AE00030F40060E0613000C0B270BD4000FFFF34
:100AF00081627047C162704701637047416951F07C
:100B0000010141617047F8B504000D002668DFF867
:100B10009870BC420ED0B4F1804F0BD0DFF88C003F
:100B2000844207D0DFF88800844203D0DFF88400D5
:100B3000844203D136F0700668680643BC421AD07E
:100B4000B4F1804F17D0DFF86400844213D0DFF88F
:100B5000600084420FD0DFF85C0084420BD0DFF8E5
:100B60005800844207D0DFF85400844203D0DFF8F5
:100B70005000844203D136F44076E868064326608C
:100B8000A9682000FFF7B6FF29882000FFF7B0FF13
:100B9000BC4203D129692000FFF7AEFF2000FFF718
:100BA000ADFF0020F2BD0000000001400004004045
:100BB00000080040000C004000400140004401409B
:100BC0000048014062F30F2262F31F42401810F008
:100BD000030308D0C91A1FD3DB0748BF00F8012D53
:100BE00028BF20F8022D130030B4144615461039E2
:100BF00028BF20E93C00FAD8490728BF20E90C00AB
:100C000048BF40F8042D890028BF20F8022D48BFB6
:100C100000F8012D30BC7047C91818BF00F8012D2D
:100C2000CB0728BF00F8012D70470000FEE7FEE764
:100C3000FEE7FEE7FEE77047704738B51F480168DA
:100C400049084900016000F051F8002820D11C4CEF
:100C50002078401C20702078022821DB1949087870
:100C6000002812D1012008701748016831F40051A2
:100C70000160164D2B78164A16491748FFF7C9FD33
:100C8000164908702878401C28700020207007E062
:100C900000200C4908700C48016851F400510160B3
:100CA00031BD80B50E490F4800F028F80E49087094
:100CB0000548016851F40041016001BD1044014044
:100CC0000B0000200C000020140802400A00002045
:100CD0000600002004000020003001400D0000202C
:100CE00008000020003C00400E0000200248006880
:100CF000800B10F00100704710080240020008004D
:100D0000D3680370431C00207047000010B50749EA
:100D100079441831064C7C44163404E00A68081DF6
:100D2000114488470146A142F8D110BD2C000000B3
:100D30003C0000004EF68851CEF20001086840F4F5
:100D400070000860BFF34F8FBFF36F8F4FF00170DB
:100D5000E1EE100A7047000017FBFFFF10000000D3
:100D600090000000000000200000000000F00DF8DE
:100D7000002801D0FFF7CAFFAFF300800020AFF3D7
:100D80000080FFF7B6FA00F002F80120704700F08B
:100D900001B800000746384600F002F8FBE7000003
:100DA00080B5AFF30080024A11001820ABBEFBE70C
:100DB000260002000548014603B4684680F309880E
:100DC000AFF30080FFF7B6FFFFF7D0FFA5EDF5FE0C
:100DD0000148804701480047E10D0008B50D0008B3
:100DE0000248016851F470010160704788ED00E02D
:100DF0000024F4000F1F00000000010000000000AC
:100E0000FFF7FEBFFFF7FEBFFFF7FEBFFFF7FEBF16
:100E1000FFF7FEBFFFF7FEBFFFF7FEBFFFF7FEBF06
:100E2000FFF7FEBFFFF7FEBFFFF7FEBFFFF7FEBFF6
:100E3000FFF7FEBFFFF7FEBFFFF7FEBFFFF7FEBFE6
:100E4000FFF7FEBFFFF7FEBFFFF7FEBFFFF7FEBFD6
:100E5000FFF7FEBFFFF7FEBFFFF7FEBFFFF7FEBFC6
:100E6000FFF7FEBFFFF7FEBFFFF7FEBFFFF7FEBFB6
:100E7000FFF7FEBFFFF7FEBFFFF7FEBFFFF7FEBFA6
:100E8000FFF7FEBFFFF7FEBFFFF7FEBFFFF7FEBF96
:100E9000FFF7FEBFFFF7FEBFFFF7FEBFFFF7FEBF86
:100EA000FFF7FEBFFFF7FEBFFFF7FEBFFFF7FEBF76
:100EB000FFF7FEBFFFF7FEBFFFF7FEBFFFF7FEBF66
:100EC000FFF7FEBFFFF7FEBFFFF7FEBFFFF7FEBF56
:100ED000FFF7FEBFFFF7FEBFFFF7FEBFFFF7FEBF46
:0400000508000DB52D
:00000001FF
