:020000040800F2
:1000000020040020B1090008D1090008D509000822
:10001000D9090008DD090008E10900080000000016
:10002000000000000000000000000000E5090008DA
:10003000E909000800000000ED090008CF080008E9
:10004000F1090008F5090008F9090008FD09000890
:10005000010A0008050A0008090A00080D0A00083C
:10006000110A0008150A0008190A00081D0A0008EC
:10007000210A0008250A0008290A00082D0A00089C
:10008000310A0008350A0008390A0008000000009B
:100090000000000000000000000000003D0A000811
:1000A000410A0008450A0008490A00084D0A0008EC
:1000B000510A0008550A0008590A00085D0A00089C
:1000C000610A0008650A0008690A00086D0A00084C
:1000D000710A0008750A0008790A0008000000008B
:1000E0007D0A0008810A0008850A00080000000057
:1000F000000000000000000000000000890A000865
:10010000000000008D0A0008910A0008950A000806
:1001100000000000000000000000000000000000DF
:10012000990A00089D0A0008A10A0008A50A00080B
:10013000A90A000800000000000000000000000004
:10014000000000000000000000000000AD0A0008F0
:10015000B10A0008B50A0008B90A0008BD0A00087B
:10016000C10A0008C50A00080000000000000000E5
:10017000000000000000000000000000000000007F
:1001800000000000C90A0008000000000000000094
:10019000CD0A000810B410F007038C4C22684FF60B
:1001A000FF010A4052EA032289490A43226010BC37
:1001B000704786480068C0F30220704710B4020000
:1001C00052B2002A05D40A01824B040064B21A55C7
:1001D00008E00A01804B040064B214F00F042344C9
:1001E00003F8042C10BC704770B4030013F007042C
:1001F000D4F10700052801D3042001E0D4F1070061
:10020000251D072D01D2002500E0E51E012616FA66
:1002100000F0401E0140A94016FA05F56D1E2A4067
:100220001143080070BC70476C48016851F001012F
:100230000160704769480068400810F0010070478D
:1002400066490A6832F0F80252EAC0020A60704752
:1002500063490A689208920002430A607047604846
:10026000006810F00C0070475D490A6832F0F00237
:1002700002430A6070475A490A6832F4E052024366
:100280000A60704756490A6832F4604202430A60C5
:10029000704754490A6832F0807202430A6070471E
:1002A00081B051490A6802430A600968014000911F
:1002B000009901B0704781B04C490A6802430A6056
:1002C000096801400091009901B0704748490A68E7
:1002D000D208D20002430A6070474548006810F017
:1002E0000700704743490A6832F4404202430A60FB
:1002F000704780B54FF48040FFF7DDFF5FF080501E
:10030000FFF7CEFF0320FFF745FFFFF752FF002264
:100310000F21FFF769FF01005FF0FF30FFF74EFF8D
:1003200000F023F800F07EF800F0A0F800F054F997
:100330004FF47A7000F073F905212F4800F017F997
:100340004FF47A7000F06BF908212C4800F00FF997
:100350004FF47A7000F063F90121294800F007F9A1
:100360004FF47A7000F05BF9E0E710B50020FFF77A
:10037000ADFFFFF7B2FF0028FBD14FF40040FFF7BD
:10038000B1FF1020FFF75CFFFFF74EFFFFF752FFB2
:100390000128FBD10020FFF767FF0020FFF76BFF6C
:1003A0000020FFF76FFF0020FFF752FFFFF757FF16
:1003B0000028FBD1134C200000F067F9200000F06A
:1003C0006CF90020FFF765FF10BD00000CED00E0A8
:1003D0000000FA0500E400E018ED00E000380240FB
:1003E000083802408C38024040380240443802400D
:1003F000003C024000700040000000200800002087
:10040000180000200024F40081B016490A68024355
:100410000A60096801400091009901B070470A0420
:100420008261704710B586B018220021684600F03E
:100430003FF90120FFF7E8FF0B4CFE212000FFF7FA
:10044000EEFFFE200090012001900020029000208D
:100450000390002004906946200000F0A9F906B03E
:1004600010BD0000303802400000024080B54FF45B
:100470007A6000F0D4F8022000F019F8022000F0B1
:1004800016F8082000F013F8322000F0ADF800F064
:100490009EF8322000F0A8F800F09EF8032000F04B
:1004A000BEF800F08FF81E2000F09EF801BD10B5D8
:1004B00004004348016831F0F001016001688908D7
:1004C0008900016001682200D2B251EA0211016084
:1004D00000F062F810BD38B50500394C206880087E
:1004E00080002060206830F0F00020602068290043
:1004F000C9B20909C9B250EA0110206000F04CF8F5
:10050000206830F0F000206020682900C9B209019D
:1005100011F0F0010843206000F03EF831BD38B51D
:100520000400274D2868800880002860286850F063
:1005300002002860286830F47F6028602868210065
:10054000C9B20909C9B250EA0110286000F024F8C4
:10055000286830F47F60286028682100C9B209014A
:1005600011F0F0010843286000F016F831BDF8B52D
:1005700004000D002600002738002900C0B2C9B2CF
:10058000884208D23078FFF7CAFF142000F02CF818
:100590007F1C761CF0E7F1BD10B5022000F024F8B6
:1005A000074C206850F008002060052000F01CF87F
:1005B000206830F008002060022000F015F810BD1F
:1005C0001400024080B50620FFF785FF01BD80B50D
:1005D0000E20FFF780FF01BD80B50120FFF77BFFF4
:1005E000022000F01CF801BD81B01B4909681B4ABC
:1005F000B1FBF2F1491E1A4A11600021194A11603B
:10060000194905220A600A680092009A002804D05D
:100610000A68D203FAD5401EF8E701B0704781B0EE
:100620000D4909684FF47A72B1FBF2F1491E0C4A88
:10063000116000210B4A11600B4905220A600A680B
:100640000092009A002804D00A68D203FAD5401E0E
:10065000F8E701B0704700001400002040420F008E
:1006600014E000E018E000E010E000E0B0FBF1F280
:10067000521EDFF82C301A600022DFF828301A6092
:100680000522DFF824301A60704710B504004FF4DB
:100690007A712000FFF7EAFF10BD04490860704737
:1006A00014E000E018E000E010E000E0140000209A
:1006B00010B5044610460A460146204600F0D4F81C
:1006C000204610BD30B4046891FAA1F3B3FA83F365
:1006D00003255B009D40AC4391FAA1F3B3FA83F389
:1006E0005B0012FA03F31C43046030BC704710B483
:1006F00044688C4302FB01F31C43446010BC704708
:1007000030B4846891FAA1F3B3FA83F303255B0054
:100710009D40AC4391FAA1F3B3FA83F35B0012FA64
:1007200003F31C43846030BC704730B4C46891FA52
:10073000A1F3B3FA83F303255B009D40AC4391FA28
:10074000A1F3B3FA83F35B0012FA03F31C43C46012
:1007500030BC704730B4046A91FAA1F3B3FA83F362
:100760000F259B009D40AC4391FAA1F3B3FA83F3AC
:100770009B0012FA03F31C43046230BC704730B490
:10078000446A0B001B0A93FAA3F3B3FA83F30F2511
:100790009B009D40AC430B001B0A93FAA3F3B3FAF2
:1007A00083F39B0012FA03F31C43446230BC70478E
:1007B000F8B505000E0000200024316891FAA1F17F
:1007C000B1FA81F73068F840002836D0306801214E
:1007D000B94008400400002C2DD07068012802D0D8
:1007E0007068022809D1B26821002800FFF788FF4D
:1007F000F26821002800FFF77AFF32692100280003
:10080000FFF793FF7068022810D194FAA4F0B0FAB1
:1008100080F0082805D2726921002800FFF79AFFAE
:1008200004E0726921002800FFF7A9FF7268210027
:100830002800FFF747FF7F1CC4E70020F2BD0EE051
:1008400002684368024408305FEAC37C44BF4B44FB
:100850005B1E52F804CB43F804CB091FF9D150F8C2
:10086000041B0029ECD1704762F30F2262F31F4290
:10087000401810F0030308D0C91A1FD3DB0748BF84
:1008800000F8012D28BF20F8022D130030B41446C3
:100890001546103928BF20E93C00FAD8490728BF7F
:1008A00020E90C0048BF40F8042D890028BF20F83B
:1008B000022D48BF00F8012D30BC7047C91818BF81
:1008C00000F8012DCB0728BF00F8012D70477047B5
:1008D00010B5074979441831064C7C44163404E0BD
:1008E0000A68081D114488470146A142F8D110BD8D
:1008F0002C0000003C0000004EF68851CEF20001B2
:10090000086840F470000860BFF34F8FBFF36F8F2B
:100910004FF00170E1EE100A7047000023FFFFFF67
:100920001C0000007000000000000020000000001B
:1009300000F00DF8002801D0FFF7CAFFAFF30080E8
:100940000020AFF30080FFF7D4FC00F002F8012094
:10095000704700F001B800000746384600F002F882
:10096000FBE7000080B5AFF30080024A11001820B9
:10097000ABBEFBE7260002000548014603B468460B
:1009800080F30988AFF30080FFF7B6FFFFF7D0FFD1
:10099000A5EDF5FE48656C6C6F000000526F6E614E
:1009A000206C646F6B2000000024F40054000000F1
:1009B0000148804701480047C1090008790900083B
:1009C0000248016851F470010160704788ED00E051
:1009D000FFF7FEBFFFF7FEBFFFF7FEBFFFF7FEBF4B
:1009E000FFF7FEBFFFF7FEBFFFF7FEBFFFF7FEBF3B
:1009F000FFF7FEBFFFF7FEBFFFF7FEBFFFF7FEBF2B
:100A0000FFF7FEBFFFF7FEBFFFF7FEBFFFF7FEBF1A
:100A1000FFF7FEBFFFF7FEBFFFF7FEBFFFF7FEBF0A
:100A2000FFF7FEBFFFF7FEBFFFF7FEBFFFF7FEBFFA
:100A3000FFF7FEBFFFF7FEBFFFF7FEBFFFF7FEBFEA
:100A4000FFF7FEBFFFF7FEBFFFF7FEBFFFF7FEBFDA
:100A5000FFF7FEBFFFF7FEBFFFF7FEBFFFF7FEBFCA
:100A6000FFF7FEBFFFF7FEBFFFF7FEBFFFF7FEBFBA
:100A7000FFF7FEBFFFF7FEBFFFF7FEBFFFF7FEBFAA
:100A8000FFF7FEBFFFF7FEBFFFF7FEBFFFF7FEBF9A
:100A9000FFF7FEBFFFF7FEBFFFF7FEBFFFF7FEBF8A
:100AA000FFF7FEBFFFF7FEBFFFF7FEBFFFF7FEBF7A
:100AB000FFF7FEBFFFF7FEBFFFF7FEBFFFF7FEBF6A
:100AC000FFF7FEBFFFF7FEBFFFF7FEBFFFF7FEBF5A
:04000005080009796D
:00000001FF
